{
  "contractName": "PokerGame",
  "abi": [
    {
      "inputs": [],
      "stateMutability": "nonpayable",
      "type": "constructor"
    },
    {
      "anonymous": false,
      "inputs": [
        {
          "indexed": false,
          "internalType": "string",
          "name": "playerHand",
          "type": "string"
        },
        {
          "indexed": false,
          "internalType": "string",
          "name": "dealerHand",
          "type": "string"
        }
      ],
      "name": "AllHands",
      "type": "event"
    },
    {
      "anonymous": false,
      "inputs": [
        {
          "indexed": false,
          "internalType": "string",
          "name": "hand",
          "type": "string"
        }
      ],
      "name": "CardHand",
      "type": "event"
    },
    {
      "anonymous": false,
      "inputs": [
        {
          "indexed": false,
          "internalType": "address",
          "name": "sender",
          "type": "address"
        },
        {
          "indexed": false,
          "internalType": "address",
          "name": "receipient",
          "type": "address"
        },
        {
          "indexed": false,
          "internalType": "uint256",
          "name": "amount",
          "type": "uint256"
        }
      ],
      "name": "Claimed",
      "type": "event"
    },
    {
      "inputs": [],
      "name": "betAmount",
      "outputs": [
        {
          "internalType": "uint256",
          "name": "",
          "type": "uint256"
        }
      ],
      "stateMutability": "view",
      "type": "function",
      "constant": true
    },
    {
      "inputs": [],
      "name": "betToken",
      "outputs": [
        {
          "internalType": "contract IERC20",
          "name": "",
          "type": "address"
        }
      ],
      "stateMutability": "view",
      "type": "function",
      "constant": true
    },
    {
      "inputs": [
        {
          "internalType": "address",
          "name": "",
          "type": "address"
        }
      ],
      "name": "bidAmount",
      "outputs": [
        {
          "internalType": "uint256",
          "name": "",
          "type": "uint256"
        }
      ],
      "stateMutability": "view",
      "type": "function",
      "constant": true
    },
    {
      "inputs": [
        {
          "internalType": "address",
          "name": "",
          "type": "address"
        }
      ],
      "name": "dealerCurrentAmount",
      "outputs": [
        {
          "internalType": "uint256",
          "name": "",
          "type": "uint256"
        }
      ],
      "stateMutability": "view",
      "type": "function",
      "constant": true
    },
    {
      "inputs": [
        {
          "internalType": "address",
          "name": "",
          "type": "address"
        }
      ],
      "name": "ipfsHashOfPlayerDetails",
      "outputs": [
        {
          "internalType": "string",
          "name": "",
          "type": "string"
        }
      ],
      "stateMutability": "view",
      "type": "function",
      "constant": true
    },
    {
      "inputs": [
        {
          "internalType": "address",
          "name": "",
          "type": "address"
        }
      ],
      "name": "playerCurrentAmount",
      "outputs": [
        {
          "internalType": "uint256",
          "name": "",
          "type": "uint256"
        }
      ],
      "stateMutability": "view",
      "type": "function",
      "constant": true
    },
    {
      "inputs": [],
      "name": "getHand",
      "outputs": [],
      "stateMutability": "nonpayable",
      "type": "function"
    },
    {
      "inputs": [
        {
          "internalType": "uint256",
          "name": "_amount",
          "type": "uint256"
        }
      ],
      "name": "setAmount",
      "outputs": [],
      "stateMutability": "payable",
      "type": "function",
      "payable": true
    },
    {
      "inputs": [],
      "name": "getApprovedAmount",
      "outputs": [
        {
          "internalType": "uint256",
          "name": "",
          "type": "uint256"
        },
        {
          "internalType": "uint256",
          "name": "",
          "type": "uint256"
        }
      ],
      "stateMutability": "view",
      "type": "function",
      "constant": true
    },
    {
      "inputs": [
        {
          "internalType": "uint256",
          "name": "_amount",
          "type": "uint256"
        }
      ],
      "name": "placeBet",
      "outputs": [],
      "stateMutability": "nonpayable",
      "type": "function"
    },
    {
      "inputs": [
        {
          "internalType": "address",
          "name": "_winner",
          "type": "address"
        }
      ],
      "name": "rewardWinner",
      "outputs": [],
      "stateMutability": "nonpayable",
      "type": "function"
    },
    {
      "inputs": [
        {
          "internalType": "string",
          "name": "_historyHash",
          "type": "string"
        }
      ],
      "name": "updatePlayerDetails",
      "outputs": [],
      "stateMutability": "nonpayable",
      "type": "function"
    },
    {
      "inputs": [],
      "name": "getGameDetails",
      "outputs": [
        {
          "internalType": "uint256",
          "name": "",
          "type": "uint256"
        },
        {
          "internalType": "uint256",
          "name": "",
          "type": "uint256"
        },
        {
          "internalType": "string",
          "name": "",
          "type": "string"
        },
        {
          "internalType": "string",
          "name": "",
          "type": "string"
        },
        {
          "internalType": "string",
          "name": "",
          "type": "string"
        }
      ],
      "stateMutability": "view",
      "type": "function",
      "constant": true
    },
    {
      "inputs": [
        {
          "internalType": "string",
          "name": "_playerHand",
          "type": "string"
        },
        {
          "internalType": "string",
          "name": "_dealerHand",
          "type": "string"
        }
      ],
      "name": "setHand",
      "outputs": [],
      "stateMutability": "nonpayable",
      "type": "function"
    }
  ],
  "bytecode": "0x608060405262000027600a670de0b6b3a76400006200046260201b62000db01790919060201c565b600055604051806101a001604052806040518060400160405280600181526020017f410000000000000000000000000000000000000000000000000000000000000081525081526020016040518060400160405280600181526020017f320000000000000000000000000000000000000000000000000000000000000081525081526020016040518060400160405280600181526020017f330000000000000000000000000000000000000000000000000000000000000081525081526020016040518060400160405280600181526020017f340000000000000000000000000000000000000000000000000000000000000081525081526020016040518060400160405280600181526020017f350000000000000000000000000000000000000000000000000000000000000081525081526020016040518060400160405280600181526020017f360000000000000000000000000000000000000000000000000000000000000081525081526020016040518060400160405280600181526020017f370000000000000000000000000000000000000000000000000000000000000081525081526020016040518060400160405280600181526020017f380000000000000000000000000000000000000000000000000000000000000081525081526020016040518060400160405280600181526020017f390000000000000000000000000000000000000000000000000000000000000081525081526020016040518060400160405280600281526020017f313000000000000000000000000000000000000000000000000000000000000081525081526020016040518060400160405280600181526020017f4a0000000000000000000000000000000000000000000000000000000000000081525081526020016040518060400160405280600181526020017f510000000000000000000000000000000000000000000000000000000000000081525081526020016040518060400160405280600181526020017f4b00000000000000000000000000000000000000000000000000000000000000815250815250600290600d620003459291906200047a565b5060405180608001604052806040518060400160405280600181526020017f480000000000000000000000000000000000000000000000000000000000000081525081526020016040518060400160405280600181526020017f430000000000000000000000000000000000000000000000000000000000000081525081526020016040518060400160405280600181526020017f530000000000000000000000000000000000000000000000000000000000000081525081526020016040518060400160405280600181526020017f4400000000000000000000000000000000000000000000000000000000000000815250815250600f9060046200044d929190620004d4565b503480156200045b57600080fd5b5062000722565b600081836200047291906200064c565b905092915050565b82600d8101928215620004c1579160200282015b82811115620004c0578251829080519060200190620004af9291906200052e565b50916020019190600101906200048e565b5b509050620004d09190620005bf565b5090565b82600481019282156200051b579160200282015b828111156200051a578251829080519060200190620005099291906200052e565b5091602001919060010190620004e8565b5b5090506200052a9190620005bf565b5090565b8280546200053c906200068e565b90600052602060002090601f016020900481019282620005605760008555620005ac565b82601f106200057b57805160ff1916838001178555620005ac565b82800160010185558215620005ac579182015b82811115620005ab5782518255916020019190600101906200058e565b5b509050620005bb9190620005e7565b5090565b5b80821115620005e35760008181620005d9919062000606565b50600101620005c0565b5090565b5b8082111562000602576000816000905550600101620005e8565b5090565b50805462000614906200068e565b6000825580601f1062000628575062000649565b601f016020900490600052602060002090810190620006489190620005e7565b5b50565b6000620006598262000684565b9150620006668362000684565b925082620006795762000678620006c4565b5b828204905092915050565b6000819050919050565b60006002820490506001821680620006a757607f821691505b60208210811415620006be57620006bd620006f3565b5b50919050565b7f4e487b7100000000000000000000000000000000000000000000000000000000600052601260045260246000fd5b7f4e487b7100000000000000000000000000000000000000000000000000000000600052602260045260246000fd5b6116d580620007326000396000f3fe6080604052600436106100dd5760003560e01c806350fc2c611161007f5780639d750e32116100595780639d750e32146102a1578063a3df05d5146102cd578063b7cdbd87146102f6578063d24257c014610333576100dd565b806350fc2c61146102305780635fe3e36b1461025f57806378691f1614610276576100dd565b806330b92ffe116100bb57806330b92ffe14610164578063373c71431461018d5780634881b603146101b65780634f5b8d21146101f3576100dd565b806310fe7c48146100e25780631e75d4b31461010b578063271f88b414610148575b600080fd5b3480156100ee57600080fd5b5061010960048036038101906101049190610ffd565b61035e565b005b34801561011757600080fd5b50610132600480360381019061012d9190610f27565b610512565b60405161013f9190611233565b60405180910390f35b610162600480360381019061015d9190610ffd565b6105b2565b005b34801561017057600080fd5b5061018b60048036038101906101869190610f91565b6106df565b005b34801561019957600080fd5b506101b460048036038101906101af9190610f27565b610791565b005b3480156101c257600080fd5b506101dd60048036038101906101d89190610f27565b61089d565b6040516101ea91906112cc565b60405180910390f35b3480156101ff57600080fd5b5061021a60048036038101906102159190610f27565b6108b5565b60405161022791906112cc565b60405180910390f35b34801561023c57600080fd5b506102456108cd565b604051610256959493929190611310565b60405180910390f35b34801561026b57600080fd5b50610274610bcd565b005b34801561028257600080fd5b5061028b610c8a565b6040516102989190611218565b60405180910390f35b3480156102ad57600080fd5b506102b6610cb0565b6040516102c49291906112e7565b60405180910390f35b3480156102d957600080fd5b506102f460048036038101906102ef9190610f50565b610d3b565b005b34801561030257600080fd5b5061031d60048036038101906103189190610f27565b610d92565b60405161032a91906112cc565b60405180910390f35b34801561033f57600080fd5b50610348610daa565b60405161035591906112cc565b60405180910390f35b600081116103a1576040517f08c379a0000000000000000000000000000000000000000000000000000000008152600401610398906112ac565b60405180910390fd5b6103f381601560003373ffffffffffffffffffffffffffffffffffffffff1673ffffffffffffffffffffffffffffffffffffffff16815260200190815260200160002054610dc690919063ffffffff16565b601560003373ffffffffffffffffffffffffffffffffffffffff1673ffffffffffffffffffffffffffffffffffffffff1681526020019081526020016000208190555061048881601660003373ffffffffffffffffffffffffffffffffffffffff1673ffffffffffffffffffffffffffffffffffffffff16815260200190815260200160002054610dc690919063ffffffff16565b601660003373ffffffffffffffffffffffffffffffffffffffff1673ffffffffffffffffffffffffffffffffffffffff1681526020019081526020016000208190555080601460003373ffffffffffffffffffffffffffffffffffffffff1673ffffffffffffffffffffffffffffffffffffffff1681526020019081526020016000208190555050565b6019602052806000526040600020600091509050805461053190611572565b80601f016020809104026020016040519081016040528092919081815260200182805461055d90611572565b80156105aa5780601f1061057f576101008083540402835291602001916105aa565b820191906000526020600020905b81548152906001019060200180831161058d57829003601f168201915b505050505081565b61060481601560003373ffffffffffffffffffffffffffffffffffffffff1673ffffffffffffffffffffffffffffffffffffffff16815260200190815260200160002054610ddc90919063ffffffff16565b601560003373ffffffffffffffffffffffffffffffffffffffff1673ffffffffffffffffffffffffffffffffffffffff1681526020019081526020016000208190555061069981601660003373ffffffffffffffffffffffffffffffffffffffff1673ffffffffffffffffffffffffffffffffffffffff16815260200190815260200160002054610ddc90919063ffffffff16565b601660003373ffffffffffffffffffffffffffffffffffffffff1673ffffffffffffffffffffffffffffffffffffffff1681526020019081526020016000208190555050565b81601760003373ffffffffffffffffffffffffffffffffffffffff1673ffffffffffffffffffffffffffffffffffffffff1681526020019081526020016000206000019080519060200190610735929190610df2565b5080601860003373ffffffffffffffffffffffffffffffffffffffff1673ffffffffffffffffffffffffffffffffffffffff168152602001908152602001600020600001908051906020019061078c929190610df2565b505050565b60006107af6064670de0b6b3a7640000610db090919063ffffffff16565b905060008273ffffffffffffffffffffffffffffffffffffffff16826040516107d7906111cc565b60006040518083038185875af1925050503d8060008114610814576040519150601f19603f3d011682016040523d82523d6000602084013e610819565b606091505b505090508061085d576040517f08c379a00000000000000000000000000000000000000000000000000000000081526004016108549061128c565b60405180910390fd5b7ff7a40077ff7a04c7e61f6f26fb13774259ddf1b6bce9ecf26a8276cdd3992683303384604051610890939291906111e1565b60405180910390a1505050565b60146020528060005260406000206000915090505481565b60156020528060005260406000206000915090505481565b6000806060806060601560003373ffffffffffffffffffffffffffffffffffffffff1673ffffffffffffffffffffffffffffffffffffffff16815260200190815260200160002054601660003373ffffffffffffffffffffffffffffffffffffffff1673ffffffffffffffffffffffffffffffffffffffff16815260200190815260200160002054601760003373ffffffffffffffffffffffffffffffffffffffff1673ffffffffffffffffffffffffffffffffffffffff168152602001908152602001600020600001601860003373ffffffffffffffffffffffffffffffffffffffff1673ffffffffffffffffffffffffffffffffffffffff168152602001908152602001600020600001601960003373ffffffffffffffffffffffffffffffffffffffff1673ffffffffffffffffffffffffffffffffffffffff168152602001908152602001600020828054610a2490611572565b80601f0160208091040260200160405190810160405280929190818152602001828054610a5090611572565b8015610a9d5780601f10610a7257610100808354040283529160200191610a9d565b820191906000526020600020905b815481529060010190602001808311610a8057829003601f168201915b50505050509250818054610ab090611572565b80601f0160208091040260200160405190810160405280929190818152602001828054610adc90611572565b8015610b295780601f10610afe57610100808354040283529160200191610b29565b820191906000526020600020905b815481529060010190602001808311610b0c57829003601f168201915b50505050509150808054610b3c90611572565b80601f0160208091040260200160405190810160405280929190818152602001828054610b6890611572565b8015610bb55780601f10610b8a57610100808354040283529160200191610bb5565b820191906000526020600020905b815481529060010190602001808311610b9857829003601f168201915b50505050509050945094509450945094509091929394565b7f2fcb5c7ec8a9e376b5895a4684da7c7337d3e98528b3c1f6320fc4fb26be9daf601760003373ffffffffffffffffffffffffffffffffffffffff1673ffffffffffffffffffffffffffffffffffffffff168152602001908152602001600020600001601860003373ffffffffffffffffffffffffffffffffffffffff1673ffffffffffffffffffffffffffffffffffffffff168152602001908152602001600020600001604051610c80929190611255565b60405180910390a1565b600160009054906101000a900473ffffffffffffffffffffffffffffffffffffffff1681565b600080601560003373ffffffffffffffffffffffffffffffffffffffff1673ffffffffffffffffffffffffffffffffffffffff16815260200190815260200160002054601660003373ffffffffffffffffffffffffffffffffffffffff1673ffffffffffffffffffffffffffffffffffffffff16815260200190815260200160002054915091509091565b80601960003373ffffffffffffffffffffffffffffffffffffffff1673ffffffffffffffffffffffffffffffffffffffff1681526020019081526020016000209080519060200190610d8e929190610df2565b5050565b60166020528060005260406000206000915090505481565b60005481565b60008183610dbe919061146b565b905092915050565b60008183610dd4919061149c565b905092915050565b60008183610dea9190611415565b905092915050565b828054610dfe90611572565b90600052602060002090601f016020900481019282610e205760008555610e67565b82601f10610e3957805160ff1916838001178555610e67565b82800160010185558215610e67579182015b82811115610e66578251825591602001919060010190610e4b565b5b509050610e749190610e78565b5090565b5b80821115610e91576000816000905550600101610e79565b5090565b6000610ea8610ea3846113a9565b611378565b905082815260208101848484011115610ec057600080fd5b610ecb848285611530565b509392505050565b600081359050610ee281611671565b92915050565b600082601f830112610ef957600080fd5b8135610f09848260208601610e95565b91505092915050565b600081359050610f2181611688565b92915050565b600060208284031215610f3957600080fd5b6000610f4784828501610ed3565b91505092915050565b600060208284031215610f6257600080fd5b600082013567ffffffffffffffff811115610f7c57600080fd5b610f8884828501610ee8565b91505092915050565b60008060408385031215610fa457600080fd5b600083013567ffffffffffffffff811115610fbe57600080fd5b610fca85828601610ee8565b925050602083013567ffffffffffffffff811115610fe757600080fd5b610ff385828601610ee8565b9150509250929050565b60006020828403121561100f57600080fd5b600061101d84828501610f12565b91505092915050565b61102f816114d0565b82525050565b61103e8161150c565b82525050565b600061104f826113ee565b6110598185611404565b935061106981856020860161153f565b61107281611660565b840191505092915050565b6000815461108a81611572565b6110948186611404565b945060018216600081146110af57600181146110c1576110f4565b60ff19831686526020860193506110f4565b6110ca856113d9565b60005b838110156110ec578154818901526001820191506020810190506110cd565b808801955050505b50505092915050565b600061110a602583611404565b91507f5468652077696e6e657220646964206e6f74207265636569766520746865206560008301527f746865722e0000000000000000000000000000000000000000000000000000006020830152604082019050919050565b60006111706000836113f9565b9150600082019050919050565b600061118a601683611404565b91507f42657420416d6f756e742063616e6e6f742062652030000000000000000000006000830152602082019050919050565b6111c681611502565b82525050565b60006111d782611163565b9150819050919050565b60006060820190506111f66000830186611026565b6112036020830185611026565b61121060408301846111bd565b949350505050565b600060208201905061122d6000830184611035565b92915050565b6000602082019050818103600083015261124d8184611044565b905092915050565b6000604082019050818103600083015261126f818561107d565b90508181036020830152611283818461107d565b90509392505050565b600060208201905081810360008301526112a5816110fd565b9050919050565b600060208201905081810360008301526112c58161117d565b9050919050565b60006020820190506112e160008301846111bd565b92915050565b60006040820190506112fc60008301856111bd565b61130960208301846111bd565b9392505050565b600060a08201905061132560008301886111bd565b61133260208301876111bd565b81810360408301526113448186611044565b905081810360608301526113588185611044565b9050818103608083015261136c8184611044565b90509695505050505050565b6000604051905081810181811067ffffffffffffffff8211171561139f5761139e611631565b5b8060405250919050565b600067ffffffffffffffff8211156113c4576113c3611631565b5b601f19601f8301169050602081019050919050565b60008190508160005260206000209050919050565b600081519050919050565b600081905092915050565b600082825260208201905092915050565b600061142082611502565b915061142b83611502565b9250827fffffffffffffffffffffffffffffffffffffffffffffffffffffffffffffffff038211156114605761145f6115a4565b5b828201905092915050565b600061147682611502565b915061148183611502565b925082611491576114906115d3565b5b828204905092915050565b60006114a782611502565b91506114b283611502565b9250828210156114c5576114c46115a4565b5b828203905092915050565b60006114db826114e2565b9050919050565b600073ffffffffffffffffffffffffffffffffffffffff82169050919050565b6000819050919050565b60006115178261151e565b9050919050565b6000611529826114e2565b9050919050565b82818337600083830152505050565b60005b8381101561155d578082015181840152602081019050611542565b8381111561156c576000848401525b50505050565b6000600282049050600182168061158a57607f821691505b6020821081141561159e5761159d611602565b5b50919050565b7f4e487b7100000000000000000000000000000000000000000000000000000000600052601160045260246000fd5b7f4e487b7100000000000000000000000000000000000000000000000000000000600052601260045260246000fd5b7f4e487b7100000000000000000000000000000000000000000000000000000000600052602260045260246000fd5b7f4e487b7100000000000000000000000000000000000000000000000000000000600052604160045260246000fd5b6000601f19601f8301169050919050565b61167a816114d0565b811461168557600080fd5b50565b61169181611502565b811461169c57600080fd5b5056fea2646970667358221220c20a17da8707c49243b79f8c6be70ea78427f1a5677020a61df99f7bd2af499f64736f6c63430008000033",
  "immutableReferences": {},
  "source": "//SPDX-License-Identifier: Unlicense\r\npragma solidity ^0.8.0;\r\n\r\nimport \"@openzeppelin/contracts/utils/math/SafeMath.sol\";\r\nimport '@openzeppelin/contracts/token/ERC20/IERC20.sol';\r\n\r\n\r\ncontract PokerGame {\r\n    using SafeMath for uint;\r\n\r\n\r\n    uint256 public betAmount = uint256(1 ether).div(10); //0.1\r\n    IERC20 public betToken;\r\n    string[13] denominations = [\"A\",\"2\",\"3\",\"4\",\"5\",\"6\",\"7\",\"8\",\"9\",\"10\",\"J\",\"Q\",\"K\"];\r\n    string[4] suits = [\"H\", \"C\", \"S\", \"D\"];\r\n    string[] cards;\r\n    \r\n    \r\n\r\n\r\n    event Claimed(address sender, address receipient, uint256 amount);\r\n    event CardHand(string hand);\r\n    event AllHands(string playerHand, string dealerHand);\r\n\r\n    struct Hand {\r\n        string cards;\r\n\r\n    }\r\n\r\n\r\n    mapping(address => uint256) public bidAmount;\r\n    mapping(address => uint256) public playerCurrentAmount;\r\n    mapping(address => uint256) public dealerCurrentAmount;\r\n    mapping(address => Hand)  playerCurrentHand;\r\n    mapping(address => Hand)   dealerHand;\r\n    mapping(address => string) public ipfsHashOfPlayerDetails;\r\n\r\n\r\n\r\n    constructor() {\r\n        \r\n    }\r\n\r\n\r\n\r\n\r\n    function getHand() public  {\r\n        emit AllHands(playerCurrentHand[msg.sender].cards, dealerHand[msg.sender].cards);\r\n    }\r\n\r\n    \r\n\r\n    function setAmount(uint256 _amount) public payable {\r\n        playerCurrentAmount[msg.sender] = playerCurrentAmount[msg.sender].add(_amount);\r\n        dealerCurrentAmount[msg.sender] = dealerCurrentAmount[msg.sender].add(_amount);\r\n    }\r\n\r\n\r\n\r\n    function getApprovedAmount() public view returns(uint256, uint256) {\r\n        return (playerCurrentAmount[msg.sender], dealerCurrentAmount[msg.sender]);\r\n    }\r\n\r\n\r\n\r\n\r\n\r\n    function placeBet(uint256 _amount) public {\r\n        require(_amount > 0, \"Bet Amount cannot be 0\");\r\n        playerCurrentAmount[msg.sender] = playerCurrentAmount[msg.sender].sub(_amount);\r\n        dealerCurrentAmount[msg.sender] = dealerCurrentAmount[msg.sender].sub(_amount);\r\n        bidAmount[msg.sender] = _amount;\r\n    }\r\n\r\n\r\n\r\n    /*\r\n    function rewardWinner(string memory _winner) public {\r\n        require(bidAmount[msg.sender] > 0, \"Bid amount Cannot be 0, Caller must play a game\");\r\n        if((keccak256(abi.encodePacked(_winner)) == keccak256(abi.encodePacked(\"player\"))))\r\n        {\r\n            playerCurrentAmount[msg.sender] = playerCurrentAmount[msg.sender].add(bidAmount[msg.sender].mul(2));\r\n        }\r\n        if((keccak256(abi.encodePacked(_winner)) == keccak256(abi.encodePacked(\"dealer\")))) {\r\n            dealerCurrentAmount[msg.sender] = dealerCurrentAmount[msg.sender].add(bidAmount[msg.sender].mul(2));\r\n        }\r\n        if((keccak256(abi.encodePacked(_winner)) == keccak256(abi.encodePacked(\"tie\")))) {\r\n            dealerCurrentAmount[msg.sender] = dealerCurrentAmount[msg.sender].add(bidAmount[msg.sender]);\r\n            playerCurrentAmount[msg.sender] = playerCurrentAmount[msg.sender].add(bidAmount[msg.sender]);\r\n        }\r\n\r\n        bidAmount[msg.sender] = bidAmount[msg.sender].sub(bidAmount[msg.sender]);\r\n    }\r\n    */\r\n\r\n    function rewardWinner(address _winner) public {\r\n        uint value = uint256(1 ether).div(100); //0.1\r\n        (bool sent, ) = _winner.call{value: value}(\"\");\r\n        require(sent, \"The winner did not receive the ether.\");\r\n        emit Claimed(address(this), msg.sender, value);\r\n    }\r\n\r\n\r\n\r\n    function updatePlayerDetails(string memory _historyHash) public {\r\n        ipfsHashOfPlayerDetails[msg.sender] = _historyHash;\r\n    }\r\n\r\n\r\n\r\n    function getGameDetails() public view returns(uint, uint, string memory, string memory, string memory) {\r\n        return (\r\n            playerCurrentAmount[msg.sender],\r\n            dealerCurrentAmount[msg.sender],\r\n            playerCurrentHand[msg.sender].cards,\r\n            dealerHand[msg.sender].cards,\r\n            ipfsHashOfPlayerDetails[msg.sender]\r\n        );\r\n    }\r\n\r\n    function setHand(string memory _playerHand, string memory _dealerHand) public {\r\n        playerCurrentHand[msg.sender].cards = _playerHand;\r\n        dealerHand[msg.sender].cards = _dealerHand;\r\n    }\r\n\r\n}\r\n",
  "sourcePath": "/mnt/c/Users/Chukky/Desktop/Projects/Poker/contracts/PokerGame.sol",
  "compiler": {
    "name": "solc",
    "version": "0.8.0+commit.c7dfd78e.Emscripten.clang"
  },
  "schemaVersion": "3.4.4",
  "updatedAt": "2022-02-20T23:54:10.760Z",
  "networkType": "ethereum",
  "devdoc": {
    "kind": "dev",
    "methods": {},
    "version": 1
  },
  "userdoc": {
    "kind": "user",
    "methods": {},
    "version": 1
  }
}